:020000040800F2
:1000000088FB002045010008C9AC0008F581000804
:10001000C7AC00085D110008CDF800080000000022
:10002000000000000000000000000000C5EB000818
:10003000BF1B000800000000B308000865B80008F6
:100040005F0100085F0100085F0100085F01000810
:100050005F0100085F0100085F0100085F01000800
:100060005F0100085F0100085F0100085F010008F0
:100070005F0100085F0100085F0100085F010008E0
:100080005F0100085F0100085F0100085F010008D0
:100090005F0100085F0100085F0100085F010008C0
:1000A0005F0100085F0100085F0100085F010008B0
:1000B0005F0100085F0100085F0100085F010008A0
:1000C0005F0100085F0100085F0100085F01000890
:1000D0005F0100085F0100085F0100085F01000880
:1000E0005F0100085F0100085F0100085F01000870
:1000F0005F0100085F0100085F0100085F01000860
:100100005F010008BDD500085F0100085F0100081D
:100110005F0100085F0100085F0100085F0100083F
:100120005F0100085F0100085F01000891160008E8
:10013000DFF80CD000F094F900480047B112020833
:1001400088FB00200648804706480047FEE7FEE798
:10015000FEE7FEE7FEE7FEE7FEE7FEE7FEE7FEE777
:10016000EDEC00083101000872B6704762B67047C6
:10017000EFF3108072B6704780F31088704730BF7D
:10018000704720BF7047B0FA80F0704790FAA0F037
:10019000B0FA80F0704790FAA0F070472DE9F05F58
:1001A0000546002092469B468846064681464024E6
:1001B0001BE0284641464746224600F036F95346A2
:1001C0005A46C01A914110D311461846224600F0F3
:1001D0001DF92D1A67EB01084F4622460120002128
:1001E00000F014F917EB00094E41201EA4F10104A0
:1001F000DFDC484631462A464346BDE8F09F10B54D
:10020000431A934209D28318881803E010F8011D9D
:1002100003F8011D521EF9D210BD40EA01039B07ED
:1002200003D009E008C9121F08C0042AFAD203E06B
:1002300011F8013B00F8013B521EF9D210BDD2B2B9
:1002400001E000F8012B491EFBD270470022F6E7BF
:1002500010B513460A4604461946FFF7F0FF20463C
:1002600010BD30B505462A460B4612F8010B13F8AF
:10027000014B08B1A042F8D01CB1002802D06D1C7F
:10028000F1E7284630BD421C10F8011B0029FBD1C4
:10029000801A704730B504460020034600E05B1C1E
:1002A000934203D2E05CCD5C401BF8D030BD0346E6
:1002B00011F8012B00F8012B002AF9D118467047DC
:1002C0000246C9B200E0401C0378002BFBD102E0DB
:1002D00003788B4203D0401E9042F9D20020704731
:1002E0000FB400B589B00BA800906A4603480A997C
:1002F00000F0ACF809B05DF814FB0000880D002098
:100300002DE9FF5FD2E901A74FF0000891699946F6
:100310001446DDF838B0464601988847054659EA44
:100320000B0005D009E0A169761C019888470546B5
:10033000216A284688470028F5D1681C03D05FEA67
:10034000CA7005D015E04FF0FF3004B0BDE8F09F53
:100350002068011D2160D0F800800AE05FEACA70C1
:1003600001D108F8015BA169761C7F1E01988847BE
:100370000546002F1ADD681C18D0B9F1000F0DD00A
:10038000E81705EBD060421120F01F0059F8221049
:100390002A1A012090400142E0D107E0BBF1000F92
:1003A000DCD1216A284688470028D7D0E169019826
:1003B0008847BBF1000F07D1002E05DD5FEACA7048
:1003C00002D1002188F80010A068B84203DDBBF11B
:1003D000000F03D017B16FF00100B6E73046B4E765
:1003E00030B50B46014600202022012409E021FA05
:1003F00002F59D4205D303FA02F5491B04FA02F502
:100400002844151EA2F10102F1DC30BD202A04DBD4
:10041000203A00FA02F1002070479140C2F1200317
:1004200020FA03F3194390407047202A04DB203A56
:1004300021FA02F00021704721FA02F3D040C2F104
:10044000200291400843194670470000024B936117
:10045000024BD36100F032B8A5080208A1040008DD
:10046000064C074D06E0E06840F0010394E8070001
:1004700098471034AC42F6D3FFF75EFE38F5020819
:1004800058F50208094910B508784C1C18B1401EEF
:100490000870205C10BD00210720ABBE207010BD8D
:1004A00002490878421C0A7070470000900D002035
:1004B000026811441378016018467047D1600449FE
:1004C00051610449116200211161114600F00AB81E
:1004D000B1040008D9040008C0B24FF4F05100F094
:1004E00097B900002DE9F34F8BB04FF0000801F1F0
:1004F0000C000C464FF0010B46460DF1080A019026
:10050000626901210198904705002DD0252D2CD03E
:10051000216A8847C0B16269012101989047216A28
:1005200088470028F7D1411E62690198904700E092
:10053000761CA1690B988847216A88470028F7D163
:10054000E1690B988847DBE7A1690B988847074664
:10055000A84201D1761CD3E7E1690B9888477F1C3C
:1005600002D1B8F1000F6FD046E1002762693D4625
:100570003946019890472A2804D1626901210198DF
:1005800090470125DFF88492626901210198904724
:10059000A0F130010A290AD24F45E5DC07EB8701BB
:1005A00000EB4107303FDFD445F01005ECE7E906EA
:1005B00001D46FF000476C280AD04C2814D068286A
:1005C00015D06A280DD074281CD07A281AD01DE0C6
:1005D00062690121019890476C2802D045F004051A
:1005E00014E045F002050DE045F020050AE06269DF
:1005F000012101989047682802D045F0080505E0E0
:1006000045F400656269012101989047C4E90157EA
:1006100065283DD019DC58287AD00CDC452837D025
:1006200004DC252826D0412831D131E046282FD0BE
:1006300047282CD12CE05B2877D0612828D063286C
:100640007CD0642823D15AE0D0E06F2848D008DC61
:1006500066281DD067281BD0692821D06E2816D1A6
:1006600027E0702845D0732868D0752847D07828AF
:100670000DD14DE0A1690B988847054625283FF428
:1006800069AFE1690B9888476D1C3FF46AAFB3E02E
:1006900023466A466FF001000B99AFF300809EE09D
:1006A00045F040006060A80723464FF0000236D4B2
:1006B0003EE0E8077FF447AF2068011D2160006835
:1006C000290501D506701BE7290701D5068017E724
:1006D000A90703D5F117C0E9006111E706600FE72C
:1006E00045F040006060A80723464FF0080216D48A
:1006F0001EE040F60E0125EA0100606016E045F0BC
:1007000040006060A80723464FF00A0207D40FE0BC
:1007100045F040006060A80708D5234610226FF01E
:1007200001000B99AFF3008059E007E02346102247
:100730006FF001000B99AFF3008050E04FF000091B
:100740004F464B46632802D05B2806D040E0E806BF
:1007500001D40120A06001273AE0626901210198DB
:1007600090475E2805D14FF001096269494601981A
:100770009047216939B900210A46534643F82120A0
:10078000491C0829FADBB0B3216969B9C11700EB2C
:10079000D16253110AEB830122F01F02821A012059
:1007A0000B68904003430B606269012101989047F8
:1007B0005D28E8D1B9F1000F09D00020514651F869
:1007C0002020D24341F82020401C0828F7DB02AB50
:1007D000224600976FF001000B99FFF791FD00286A
:1007E0000CDA401C08D1BBF1000F05D04FF0FF30F0
:1007F0000DB0BDE8F08FFFE74046F9E7E90701D10A
:1008000008F1010806444FF0000B79E6CCCCCC0C83
:100810007F2801D9002208E0064A02EB5002C007F7
:10082000127800D1120902F00F0201209040084016
:1008300070470000FCF3020870B58C1810F8015BDB
:1008400015F0070301D110F8013B2A1106D110F869
:10085000012B03E010F8016B01F8016B5B1EF9D16D
:100860002B0705D40023521E0DD401F8013BFAE7F3
:1008700010F8013BCB1A921C03E013F8015B01F85E
:10088000015B521EF9D5A142D8D3002070BD0000F3
:1008900018484FF0FF010170002080F309881648C6
:1008A000016881F3088815484FF08051016062B6F5
:1008B000FEE772B6EFF3098028B1203880E8F00F28
:1008C0000F490968086000B50E4880475DF804EBE1
:1008D0000D480E490A78027009480D490A680260FD
:1008E000106890E8F00F203080F309884EF0040E75
:1008F00062B6704722ED00E09000002004ED00E0B9
:10090000880000208DB6000844000020450000202B
:100910008C000020002800DC404270477047000037
:1009200070B58AB0002409AD03260594CDE90765AA
:100930001922134B0694CDE9013201200102CDE9C1
:1009400003100C20009023460E4A0FA112480AF013
:10095000D9FCCDE9064605944FF480600895CDE9B1
:10096000030466210D4ACDE901210D2000900A48BB
:1009700000230B4A0BA1B4300AF0C4FC0AB070BDCE
:10098000B41300205D0A0008417070205461736B3D
:1009900020557064617465004C0E0020B81700206B
:1009A000E10A0008417070205461736B2055736533
:1009B00072617070000000000EB500F0A5F800F044
:1009C000B3FC00F005F902A80AF044FC0BA01DF0EE
:1009D00043FDFFF7A5FF15A01DF03EFDFFF79EFFAD
:1009E000002502AC05F0CAFE0022CDE900540F2319
:1009F000114610460AF0A4FEF4E700003C3C2D4FDF
:100A0000532D494E464F2D3E3E2043726561746919
:100A10006E67204170706C69636174696F6E2054F9
:100A200061736B732E2E2E0A0D0A00003C3C2D4F75
:100A3000532D494E464F2D3E3E20437265617469E9
:100A40006E67204170706C69636174696F6E2045D8
:100A500076656E74732E2E2E0A0D0A000EB51D4C8F
:100A60004FF47A7508E0A178491CC9B2A1700A292F
:100A700006D228461EF044FC0EF0A6FC0028F2D157
:100A8000DFF854A04FF480794946504602F0FCFF4D
:100A9000124E012700250DF10808A0780A280BD274
:100AA00000200EF011FD38B13078012800D16770B8
:100AB0004946504602F0EAFF0022CDE9005864237F
:100AC000114610460AF03CFE4946504602F0DCFF53
:100AD000E3E700002800002000080140BF000020DC
:100AE00004480078552801D020F084FA0EF00EFF5B
:100AF000FCE700002800002000B585B068460CF037
:100B00006BF9019805B000BD10B586B000200290C9
:100B1000039004900590012140200CF033F900F07F
:100B200019FB08F041FE07F0C5FE07F0D9FE00F002
:100B3000F5FA0EF0A5FD11F0D9FD042010F00AFE23
:100B400004F0E2FD01221DA11D481FF039FB1D49E3
:100B500008701D4C18B1E120207006B010BD01F0E6
:100B6000CFF8012826D001224FF4FF1116480DF0CE
:100B700063FE20785528F0D11022144902A80DF008
:100B80005BFEBDF80C000090BDF81430BDF81020DD
:100B9000BDF80810002005F099FDBDF80E0000908A
:100BA000BDF81630BDF81220BDF80A10012005F07E
:100BB0008DFDD2E7E0202070CFE70000313A000041
:100BC000884D00202B0000202800002002E01F009C
:100BD00010B5FFF791FF04490968B0FBF1F0BDE8DB
:100BE00010400AF051BE00006C21020838B545687B
:100BF0000446014628460FF0E3F900282AD0206871
:100C0000304A0F2819D006DC0B2824D00C2810D02D
:100C10000E2851D12FE0112802D028284CD145E0D0
:100C20009268002A16D02146284601B0BDE830401F
:100C30001047214628465268F7E7284603F064FB30
:100C40000090406E0468684603F0C8FB002C01D099
:100C50002846A04738BD284603F056FB0090683070
:100C600003F0ACFA009803216C3003F0B5FA684643
:100C700003F0B4FB20E0E168486809680D2902D060
:100C8000202913D105E0002810DD284619F0D2F9FB
:100C900006E0002804DD2846BDE8384019F0CAB94E
:100CA0002846BDE83840022119F0DAB9E06818B9E1
:100CB0000021284600F0C6F92046BDE838400FF074
:100CC00077BD0000C80500202DE9FF410AAF70CFB5
:100CD000002703958DE8D00000F003F804B0BDE8CC
:100CE000F081F0B585B00DF1280CBCE8F0004FF0B4
:100CF000000C8DE8F01000F025F805B0F0BDF0B55F
:100D0000044685B08069B4F90850668A0027CDE9A9
:100D10000265CDE900170490B4F90C00B4F9106035
:100D2000C118B4F90A00B4F90E50104433462A46EB
:100D300000F008F80546616800F0A3F905B0284600
:100D4000F0BD00002DE9F04F85B01F46DDE911B47C
:100D5000DDE90E5690468946824604F03FFD4C344C
:100D60001548CDE90204CDE900563B4642464946C6
:100D700050460FF063FC040018D003F0C5FA1022AF
:100D8000594604900FF084FB049830220B4934300C
:100D9000FFF735FA094D04990C3D2868486604A808
:100DA00003F01CFB286841682046884705F0AAFF2D
:100DB00005B02046BDE8F08FED0B0008D4050020FB
:100DC000F0B5044680688B4989B051F820506068BE
:100DD00000287DD0052804D006287AD0122879D1A1
:100DE000AEE0E86900284FD095E80E008DE80F00CE
:100DF00004F110010FC906F00DFD002655F826007C
:100E000005F0AFFAA169E8690A1A2169014460692D
:100E1000304404F06BF9A169E8690A1A21690144B8
:100E2000E069801B04F062F9E169E8690A1A616906
:100E300001442069304404F02FFAE169E8690A1A94
:100E400061690144A069801B04F026FA761C022E19
:100E5000D4DBA86805F085FAE069E9696669431A98
:100E600020694218521E3144801C04F0B9FAE1692D
:100E7000E869A2690B1A61690144101A401C921EAC
:100E800004F0AEFAEE6913E05FF0000655F82600B4
:100E900005F067FAE069831BA069821B606981190C
:100EA0002069304404F098F9761C022EEEDB02260D
:100EB000D5E90301CDE900016169E0690844431007
:100EC000A069891C821B2069304404F0D3F802E039
:100ED00089E012E08AE0D5E90501CDE90001E36986
:100EE00060690121184401EB6001A0699B1E821B0F
:100EF0002069304404F0BEF878E0206803F004FA7A
:100F00000490206811F0A8F840B1A06808B1002052
:100F100008E00498006F28B1012003E00498406FB6
:100F200000B10220049901EB8000C56E04A803F013
:100F300055FA00231A462846216803F08FFD55E034
:100F4000206803F0E1F90490866EEEB3B0F95C70AE
:100F5000A168D1B3032942D05FF0000100EB810109
:100F6000406D0C6C05F01AFA204605F0FAF905A858
:100F700004F0F8FABDF81410A88B0144ADF8141071
:100F8000BDF81810081AADF81800BDF81600801C3E
:100F9000ADF81600BDF81A00801EADF81A000498CE
:100FA0005E30B0F90220B0F9001005A805F088F80D
:100FB00004A803F013FA022005F05CFA304603F0AF
:100FC000A3F93A4605A901E00BE006E0079003F01B
:100FD0009FFE07A803F002FA08E00121BEE7022104
:100FE000BCE704A8F6E7206810F074FC09B0002004
:100FF000F0BD000000CF020870B516460C4605464D
:1010000019463046049A03F0EBFC02462146284676
:10101000BDE8704000F062B8044A03491160044919
:101020004A6A48621046704704060020C80500203E
:10103000D405002000294FF0100101D00FF04FB867
:101040000EF096BF4FF480720029114601D00FF0C8
:1010500046B80EF08DBF08B50023009300F001F8EC
:1010600008BD70B516460C46054619463046049A2A
:1010700003F0D6FC024621462846BDE8704000F049
:101080002DB82DE9FF410E4605004FF0010421D097
:1010900004F0A4FB284603F037F90190876E01A8FD
:1010A000009703F09BF93146684606F059FF78B186
:1010B00000980024B84208D0284603F025F9019092
:1010C0000099816601A803F089F9284610F0E0F83C
:1010D00005F018FE04B02046BDE8F081F8B51546CD
:1010E0000C46060018D004F079FB304603F00CF9EA
:1010F0000090032C0BD800EB84006C3003F05EF8FA
:10110000009800EB8400C566304610F0C1F86846D0
:1011100003F064F905F0F6FDF8BD000038B50121D3
:1011200004200BF04BFE4FF48074ADF8004010200B
:101130008DF8030003208DF80200054D694628460E
:1011400002F048FC2146284602F09EFC38BD000013
:10115000000801404FF4A06009F0EABDFEE700007E
:101160002DE9FF470446006810B110F075FF68B123
:101170000022314850F8221060680A2841D007DC6C
:10118000F0B306280DD0072854D106E00122F0E77D
:1011900012280AD019284DD137E0204612F044FF1A
:1011A00048E0204614F054FC44E0206803F0ACF81A
:1011B0000290B0F9548090F85650476C466B02A8E4
:1011C00003F00CF9206800F039F8814668460FF00A
:1011D0000FFCBDF8001009EB05000844ADF8000055
:1011E000246A304605F0DAF8022005F043F9384663
:1011F00005F0B7F842466946204603F089FD19E03C
:1012000007E0204615F021FA14E0886904B0BDE833
:10121000F087206810F05EFB206803F075F80390FB
:10122000B0F90610B0F90220891A491CC16703A859
:1012300003F0D4F80020E9E710CF020838B50446DF
:1012400004F0CCFA204603F05FF80090C46F6846C3
:1012500003F0C4F805F056FD204638BD044A0349A2
:1012600011600449CA69C8611046704790060020A1
:10127000500C0020540C002000B589B02421684691
:10128000FEF7E4FF19200190034800688068416878
:101290006846884709B000BD500C00207CB5214C41
:1012A0000546216831F8220F4A8D1044088048888D
:1012B000CA8D10444880284604F02EF92168498CD4
:1012C000ADF800104618284606F0E6FC3044401EF3
:1012D000ADF8040004F09AF92168898CADF8021089
:1012E0000844401EADF80600684610F049FD04E0D1
:1012F000284602F00FF810F0F7FC0028F8D10A2D6C
:1013000004D0BDF804002168401C4884206830F8EF
:10131000221F428D891A01804188C28D891A41801D
:101320007CBD000014050020AFF3008002490020BE
:10133000086000F009B80000300000200149086092
:10134000704700003000002010B50948016841F0E6
:1013500080710160074800214160016841F001018E
:101360000160FFF7C9FBBDE81040FFF7E7BF0000D1
:10137000FCED00E0001000E001484068704700000C
:10138000001000E070B500254FF4803400E0641ECA
:1013900024B180200CF0ECF80028F8D02CB140F2F9
:1013A000FF500CF09FF8284670BD032070BD000070
:1013B00070B5054600243B49486B00E0486B10F0CF
:1013C000450FFBD0410705D5032404200CF08AF813
:1013D000204670BDC00705D0012401200CF082F822
:1013E000204670BD0CF0BEF8A84201D0102070BDA0
:1013F00040F2FF500CF076F800200CF0D5F82A49A6
:10140000084201D1204670BD002801DA1C2070BDC1
:10141000410001D5092070BD810001D50A2070BDB1
:10142000C10001D50B2070BD010101D50C2070BD9C
:10143000410101D50D2070BDC10101D50E2070BD47
:10144000010201D50F2070BD410201D5102070BDF1
:10145000810201D5112070BDC10201D5122070BDDD
:10146000010301D5132070BD410301D5142070BDC7
:10147000810301D5152070BDC10301D5162070BDB3
:10148000010401D5172070BD410401D5182070BD9D
:10149000810401D5192070BD000701D51A2070BD47
:1014A000204670BD0080014008E0FFFD10B500241B
:1014B0000E4A516B00E0516B11F0450FFBD048070D
:1014C00005D5032404200CF00DF8204610BDC807F4
:1014D00005D0012401200CF005F8204610BD40F293
:1014E000FF500BF0FFFF204610BD000000800140C0
:1014F00010B500240A4A516B00E0516B11F0450F02
:10150000FBD0480705D5032404200BF0EBFF204651
:1015100010BD40F2FF500BF0E5FF204610BD00006B
:101520000080014070B506460C4600251C4A506BF1
:1015300000E0506B10F0450FFBD0410705D50324A8
:1015400004200BF0CFFF204670BDC00705D001245A
:1015500001200BF0C7FF204670BD0CF003F8B0422D
:1015600001D0102070BD40F2FF500BF0BBFF0020F7
:101570000CF01AF810F4604F03D0810405D5132045
:1015800070BD000C2080284670BD410401D510209C
:1015900070BD000401D50F2070BD284670BD00004D
:1015A0000080014010B500204FF480310D4B5A6B84
:1015B00001E0491E5A6B12F0450F01D10029F8D104
:1015C00009B1510705D5032404200BF08BFF2046F9
:1015D00010BD5106FCD5002440200BF083FF2046AF
:1015E00010BD000000800140F0B587B00FF02EFA6A
:1015F0003A213022CDE904214FF414730024CDE9BF
:1016000002430321CDE900013E2374221B21184629
:1016100006F0C5FE064630460EF0B0FF164D6FF0E0
:101620007F4705EBC40055F834104268304606F099
:10163000EDFD3A462146304606F0A2FF641CE4B2B6
:10164000022CEED30D4A0121304606F01FFF0C4953
:10165000304606F037FF4FF0FF31304606F060FFAE
:101660000A220021304606F06AFF07B03046BDE886
:10167000F040082106F03DBF2822020880FFFF80CD
:10168000189A02080148006870470000DC06002034
:1016900010B5FEF76DFD064A1178491C1170FEF772
:1016A0006BFD0CF0C9FBBDE8104009F0EBBB00007E
:1016B0003C000020C10002D5024908607047024981
:1016C000486070470404024000000240002904D032
:1016D000016841F001010160704701684FF6FE7238
:1016E000114001607047002A03D002680A4302607B
:1016F000704702688A430260704730B5026847F657
:10170000F0739A430C6A8B682343D1E904452C4358
:1017100023438C692343CC6923434C6A23438C6A5B
:10172000234313430360CA6842600A6882604968C1
:10173000C16030BDF8B50C46050018D0002C16D09D
:1017400004F04CF8284602F0DFFD0090C66B6846B6
:1017500002F044FE2046FEF796FD421C214630462C
:1017600002F060FE28460FF093FD05F0CBFAF8BDBD
:1017700038B5040016D004F031F8204602F0C4FD5C
:101780000090D0F8880040B10FF04AF8009900208E
:10179000C1F8880020460FF07BFD684602F01EFE6F
:1017A00005F0B0FA38BD0000F8B50546006802F053
:1017B000ABFD0090448ED0F88860684602F00EFEC3
:1017C00006B1012604F00104286810F045FC0EB1B2
:1017D000002006E00CB1012003E008B1022000E087
:1017E00003201B4951F82010686858B302280CD018
:1017F000052802D0122828D103E0284612F040FC28
:1018000023E0284615F071FA1FE06A69E8694FF095
:10181000FF33801AA0F1080203EB6204421CAB699B
:10182000001B4510A3EB6206C86904F09AFD06E0B0
:101830003219311B284603F059FC641E6D1C002C24
:10184000F6DA02E0286810F045F80020F8BD000044
:1018500070CF02082DE9F14F9EB01E9800287DD070
:1018600003F0BCFF1E9802F04FFD08901E980FF089
:1018700047FA1A900898B0F9367090F890101991BC
:10188000C16B179190F88C90B0F93410079100F06B
:101890007EF9824608980BACB0F88E101591B0F91D
:1018A00082100A91C16C0991D0E90012CDE90512AC
:1018B000D0F894B0002100BF00EB8102126D44F813
:1018C0002120491C0329F7D300210EAD00EB810232
:1018D000D26D45F82120491C0329F7D3002111AE10
:1018E00000EB8102126F46F82120491C0329F7D32F
:1018F00008A802F073FD1E980FF089F902F004FDAC
:101900001490D0F8008014A802F068FD4FEA284037
:1019100042420FFA88F0414205A804F0D1FB5FEA89
:10192000897003D5BDF81600C01B01E0BDF81A0090
:10193000ADF816001E980FF06AF901461A98CDE925
:10194000000702220292BDF91630BDF914200020D2
:1019500008F0F7F880465FEAC97000E07BE007D046
:101960004046199908F032FC0121404608F030FB4E
:10197000002708E03946179802F0C8FD01464046A6
:1019800007F0A0FF7F1C5745F4D30027394654F8D1
:101990002720404608F046FB7F1C032FF6D3002487
:1019A000214655F82420404608F0A9FC641C032C6D
:1019B000F6D30024214656F82420404608F0E6FBE2
:1019C000641C032CF6D35FEA0B001ED002F09CFCD3
:1019D00030F8025B00240126169011E0169804F0FE
:1019E000070100EBD40006FA01F10078084201D0AB
:1019F000012200E000222146404608F045FB641C1D
:101A0000AC42EBDB16A802F0E9FC4046159908F061
:101A10006EFB4046099908F01EFB40460A9908F003
:101A200059FC40460FF0D0FE40461E9908F099FB45
:101A30004046079908F0E7FB01211E980FF0CBFC08
:101A40001E9802F061FC0890C0F8888008A802F097
:101A5000C5FC05F057F91FB0BDE8F08F38B505009B
:101A60004FF000040CD003F0B9FE284602F04CFC05
:101A70000090B0F93440684602F0B0FC05F042F93D
:101A8000204638BD044A0349116004490A6B0863C3
:101A9000104670471C070020E0060020E4060020E6
:101AA000F8B50C46060028D003F098FE304602F048
:101AB0002BFC0090D0F88850C06C03F0FBFD07466B
:101AC0000098C464684602F089FC304600F03EF895
:101AD00030460FF0DDFB75B1204603F0EBFDB84258
:101AE00005D03046FFF744FE3046FFF7B3FE2146EF
:101AF000284608F0B0FA05F005F9F8BD38B50C46EF
:101B0000050022D003F06AFE284602F0FDFB00909B
:101B100000F03DF800B1401E844200DD044600980C
:101B2000B0F93410A1420BD08486684602F056FC0E
:101B300028460FF0ADFB042128460FF04CFC02E0D4
:101B4000684602F04BFC05F0DDF838BDF8B50446F8
:101B500002F0DAFB01460090B0F9380010B9C86C09
:101B600003F0A8FD0099CA6AB1F98030126800EB51
:101B700043001618084610F0F5F80546684602F0CE
:101B80002DFC3246294620460FF0F9FEF8BDC06B09
:101B900002F0B0BC38B50D46002402F0B5FB009051
:101BA000C06B294602F0B2FC0546684602F016FCFE
:101BB0001DB1284602F0A8FB0446204638BD7047F8
:101BC0004FF47A7148431DF09BBB000038B50121EA
:101BD00008200BF0F3F84FF48070ADF800001020EF
:101BE0008DF8030003208DF80200084C694620465A
:101BF00001F0F0FE012108200BF0E0F86115ADF8CE
:101C000000106946204601F0E5FE38BD000C014099
:101C100010B5FFF7DBFF00F00FF8064C4FF4007132
:101C2000204601F033FFA1152046BDE8104001F029
:101C30002BBF0000000C014010B586B001218804C4
:101C40000BF0AEF8012108200BF0B8F84FF48060DB
:101C5000ADF8140018208DF8170003208DF8160039
:101C60001B4C05A9204601F0B5FEE114ADF8141097
:101C700004218DF8171005A9204601F0ABFE4FF4A2
:101C8000E13001900020ADF80800ADF80A00ADF891
:101C90000C00ADF810000C20ADF80E000D4C01A9A1
:101CA00020460DF06BFD012240F2255120460DF03B
:101CB0004AFD012240F2244120460DF044FD00F08F
:101CC0000BF8012120460DF02BFD06B010BD0000E1
:101CD000000C01400048004008B54FF4A06009F036
:101CE00027F827208DF8000000208DF801008DF8DE
:101CF000020001208DF80300684608F0E7FF08BDE8
:101D000070B586B0012108030BF058F801211020AE
:101D10000BF054F80124ADF8004003208DF80200C8
:101D200010208DF803002D4D6946284601F052FE23
:101D3000012104200BF042F82021ADF800101821F9
:101D40008DF80310264E6946304601F043FE01210E
:101D500004200BF033F84021ADF8001069463046FE
:101D600001F038FE012104200BF028F88021ADF8A5
:101D700000106946304601F02DFE0121284601F091
:101D800085FE0020ADF804004FF48271ADF8061016
:101D9000ADF808000221ADF80A10ADF80C400902B8
:101DA000ADF80E100821ADF81010ADF812000720A4
:101DB000ADF814000B4C01A920460CF0BEFE012129
:101DC00020460CF02DFD0CF0FBFD0749884202D1A6
:101DD000002006B070BD0120FBE7000000100140AC
:101DE00000080140003001401740EF002DE9F043AA
:101DF00089B0984615460F4606004FF000042DD0D6
:101E000000F0BCFB0446304600F09FFB814603F027
:101E1000E5FC03A9304600F02EFDF80706D0BDF919
:101E20001C00001B401B401C822109E0B807002851
:101E3000BDF91800284402DA40F2022100E0022134
:101E40000096CDE9018123461A464946FEF73CFF3C
:101E500004460021FFF7EEF804F054FF09B02046D5
:101E6000BDE8F08310B50523FFF7C0FF0446054A1F
:101E70000021FFF7F0F8044920460FF0E0FB204670
:101E800010BD00001D3F0108EDE501082DE9F047F8
:101E9000456804468EB00026284602F035FA0090C8
:101EA0005C30B0F820A0D0F80C90D0F82480C76A3D
:101EB000006800B10668684602F090FA05E07968AB
:101EC0002046884700283DD13F68002FF7D1206881
:101ED000142844D009DCA0F10B00072839D2DFE830
:101EE00000F0BE3989B434B4110020287ED004DC5F
:101EF00017283ED01E282CD14BE026283CD02A287B
:101F000027D110E02846E66802F0FEF90190717AC8
:101F100039B9317A012904D130F87C1F41F480713C
:101F2000018001A88FE0284602F0EEF90090E168F8
:101F300011B1C0F8841002E0D0F88400E060684677
:101F400002F04CFA0EB0BDE8F087002E7DD0284696
:101F5000B0477AE02146284618F03AFBF2E705A997
:101F6000284600F088FCE068069901600799416006
:101F7000E8E7C4F80C90E5E7E0680228E2D10C95A8
:101F8000E0680D9027200A900AA9A06810F066FA70
:101F9000D8E7E068012804D00021284600F066FB5D
:101FA000D0E740460FF0CFF958B140460FF00CFC97
:101FB00040460FF099F888B1012140460EF08FF8A5
:101FC0000CE048460FF054FC8046284602F09CF98D
:101FD0000090C0F88080684602F000FA012128468F
:101FE00000F044FBB8F1000FACD100E00EE000209F
:101FF000E060A7E75FEA0A7027D4E068C06820B312
:10200000007A10B328460FF0DFFB1EE0E668E6B169
:102010002946706810F009F820B1012128461AF00D
:102020008DFD12E0002128461AF088FD294630680F
:102030000FF0EAFF48B1284602F066F903903168D4
:10204000C0F8801003A802F0C9F9214628460DF017
:10205000B7FF00288CD020460EF0AAFB72E7284676
:1020600002F052F90090703002F0A8F86846EAE7F2
:10207000F0B587B0B0F908400DF10C0C0C9E8769E3
:102080004568ACE8F000448A0025CDE900150294CB
:10209000B0F90C10B0F91050B0F90E40B0F90A00C8
:1020A000194410442B46224600F002F807B0F0BD58
:1020B0002DE9F04F8BB09846DDE9155691468A46DA
:1020C0008346149F1A9C03F089FB6034314845F421
:1020D0008055CDE90204CDE9007543464A46514694
:1020E00058460EF0ABFA04004DD002F00DF9302244
:1020F000049017990EF0CCF9049828222649343020
:10210000FEF77DF8049819995C30234F81600684AE
:10211000002646620661083FC6627968016004A82D
:1021200002F05CF905A9204600F0A5FB1B4841F22E
:10213000827103960094CDE90110BDF91E00BDF92E
:102140001A10BDF91C20431ABDF918005B1C121AA5
:10215000521C0EF073FA064678684168204688479C
:10216000204602F0D1F80490866604A802F036F901
:1021700042F20400054202D120460EF0B9FB20468F
:10218000189900F0E2FA04F0BDFD0BB02046BDE85E
:10219000F08F00008D1E0008E0070020852B00084E
:1021A0002DE9F041044694B0006800F0B7F908B199
:1021B000D94D01E0D84D2C35606815281ED00CDCB7
:1021C0000B281FD004DC00287ED005287DD12EE10D
:1021D0000E287BD01228F9D141E1162806D0172805
:1021E00008D0182808D01C28F0D109E0E86914B0FC
:1021F000BDE8F081286AFAE7686AF8E7A86AF6E7B6
:102200006869F4E720680B901C200C90206802F0AD
:102210007BF80390016D0BA88847064603A802F0DF
:10222000DDF8022E0EDB95E807008DE80700D4E903
:1022300004023346A16905F0B3FA20698719A06941
:10224000801B2BE0286804F08CF82169E8690A18E3
:10225000521E606902F04AFFA269E869111A491C1E
:10226000606902F043FF676920697F1C394602F00C
:102270008DFF3946A06902F089FF686804F071F8A3
:1022800020693946401C02F081FFA0693946401E92
:1022900002F07CFF2769A069BF1C801E8046286869
:1022A00004F05FF842463946606902F01FFF686833
:1022B00004F057F860694246401C394602F016FFA8
:1022C000686A02280FDD02E015E1AFE000E1A868CE
:1022D00004F047F861696A6A881C8B1801465B1E26
:1022E0004246384627E0296AB14226DD6069022E5F
:1022F000074600F1020801DB374401E007F102075D
:10230000206901DB304401E000F1020022693B4614
:102310000A44A2F10102414603F062F8022E02DBF8
:10232000A069821B01E0A269921EA069E9693B468F
:10233000401A401C414603F053F8022E02DB60694C
:10234000064401E06669B61CE76928687F1E04F050
:1023500008F83A463146206902F09EFF3A46314677
:10236000A06902F099FFE7696868BF1E03F0F9FFF2
:1023700020693A46401C314602F08EFFA0693A4679
:10238000401E314602F088FFE869022802DC286A14
:10239000022823DDA86A022802DDE1690F1A01E0A4
:1023A000E769BF1EA86803F0DCFFE969022909DDBF
:1023B00020693B46421800F1020C521E314660462D
:1023C00003F00EF8286A022808DDA269E8693B4696
:1023D000101A401C921E314603F002F8286803F0E0
:1023E000C0FFD4E90620216902F080FE686803F08E
:1023F000B8FFA2692169E069521E491C401E02F023
:1024000075FEA86A022811DD2669A169E469B61C77
:10241000271AA1F102087F1CA41EA86803F0A1FFDF
:10242000234642463946304602F0DAFF72E0208AFF
:1024300006B2ADF81460A08A01B2ADF81610208B78
:1024400002B2ADF81820A08B03B2ADF81A30D5E96E
:102450000304CDE90004304602F00CFE5AE0208A65
:10246000298B0844ADF81400A08AADF81600208B23
:10247000298B401AADF81800A08BADF81A0020681F
:1024800001F042FF0390006FF0B1022003F0F2FF71
:10249000039991F87C00C0F3C00001EB8000006C50
:1024A00003F05FFF0398406B03F078FF0398006F21
:1024B00001F02AFF03990A90B1F95A2005A902F008
:1024C00027FC0AA801F08AFF03A801F087FF21E09A
:1024D000208AADF81400A08AADF81600208BADF864
:1024E0001800A08BADF81A00A86803F03AFF05A801
:1024F00002F0A2FF0EE0206801F006FF039030F822
:102500005A1F41F00C01018003A801F067FF206809
:102510000FF0E0F900206AE61C08002038B505003D
:102520004FF000040FD003F059F9284601F0ECFEFB
:10253000009090F87C00000700D50124684601F067
:102540004DFF04F0DFFB204638BD38B505004FF0E5
:10255000000411D003F042F9284601F0D5FE0090A6
:10256000C06D00218068026828469047044668468E
:1025700001F034FF04F0C6FB204638BD30B587B00B
:1025800005004FF0000413D003F028F901A92846F4
:1025900000F071F9284601F0B7FE0090B0F9544000
:1025A000684601F01BFF0CB9BDF9044004F0AAFB1A
:1025B00007B0204630BD30B504468BB0006801F04E
:1025C000A3FE009090F87C10246A006FC1F3C00550
:1025D00008B101F099FE0690E0680290206903902E
:1025E000A088401EADF81000E089ADF812002089E7
:1025F000401CADF81400608AADF81600BDF8080064
:10260000401CADF80800BDF80A00401CADF80A00F7
:10261000BDF80C00401EADF80C000098406B03F0B4
:10262000BDFE009808AA02A9B0F95A30069804F035
:10263000FBFC009800EB8500806B06F08DFD009898
:1026400000EB8500006C06F0BFFD08AB02AA04A9F0
:1026500006980DF02DFE684601F0C0FE069810B1F8
:1026600006A801F0BBFE0BB0002030BD70B50D46D2
:10267000040009D003F0B2F8294620461AF05EFAA9
:10268000BDE8704004F03EBB70BD0000074A06493B
:10269000054B1160064A083BD16958601B68C2E9C6
:1026A000063008467047000010080020DC070020B4
:1026B000E00700202DE9FC410D46804603F08EF82E
:1026C0005FEA080028D001F01FFE0190C16D8C6800
:1026D00000F038F907460198456301A801F07EFE35
:1026E0002268012140469047064622680321404661
:1026F00090470546226800214046904704464046E0
:1027000000F009FA2B46324639464046009400F064
:1027100091F940460EF0BCFD04F0F4FABDE8FC81EE
:1027200038B50C46054603F059F855B1284601F076
:10273000EBFD00900466684601F050FE28460EF05E
:10274000A7FDBDE8384004F0DDBA7CB50D460400B5
:102750001DD003F043F8204601F0D6FD0090006F35
:102760000190684601F03AFE294601A805F0F8FB01
:1027700058B1204601F0C8FD0090019901676846F4
:1027800001F02CFE20460EF083FD04F0BBFA7CBD68
:1027900038B50C46050013D003F020F8284601F0A8
:1027A000B3FD0090B0F95A10A14204D0A0F85A40ED
:1027B00028460EF06DFD684601F010FE04F0A2FA06
:1027C00038BD000038B50C46050015D003F006F8FA
:1027D000284601F099FD0022CDF8000000EB8201AF
:1027E000521C0C64022AF9D3684601F0F7FD284612
:1027F0000EF04EFD04F086FA38BD2DE9FC470D467B
:102800005FEA00094FF0000432D002F0E7FF4846CB
:1028100001F07AFD0190B0F95440A54223D000F0B8
:1028200091F8804601980121A0F85450C06D856848
:1028300048462A68904707462A6803214846904739
:1028400006462A680021484690470546484600F05B
:1028500062F933463A4641464846009500F0EAF8A8
:1028600048460EF015FD01A801F0B8FD04F04AFA43
:102870002046BDE8FC872DE9F34F85B000270C46C4
:10288000B846059801F040FD0090C06D01218568B3
:1028900005982A68904782462A6803210598904740
:1028A00004902A6802210598904703902A68002125
:1028B00005989047064600980FF054FA8346009812
:1028C0000FF057FA8146009890F83210890601D52A
:1028D000B0F9588000F036F805460098C06E10B187
:1028E0000EF025FA074625806780A4F804A0049A14
:1028F000ABEB020006EB0802401E2A4420813A445A
:10290000E280039BA9EB0302521E6281A4F80CA093
:1029100020827019E681401E6082684601F05EFDEB
:10292000B4F90C000190B4F91000029002AA01A9B8
:10293000059800F039F80198A0810298208207B02C
:10294000BDE8F08F10B50146002091F832209206C4
:1029500007D5B1F95400002803D1486B02F0AEFE50
:10296000801C10BD70B58AB00C46054601F0CCFC49
:102970000990C06D866809A801F030FD009534B15A
:10298000012C06D0022C0BD0032C04D10AE0182015
:1029900000E0162001907168684688470AB070BD53
:1029A0001520F7E71720F5E72DE9FC479046894603
:1029B000044601F0A9FC0090C16D056868468E6868
:1029C00001F00CFD32680021204690470646204663
:1029D0000EF063F82F1404462DB227E001F094FCAA
:1029E0000190B0F90010B0F90420B0F90230491B91
:1029F000521BDB1BB34212D190F82800000607D50A
:102A0000D8F8000088420ADB491EC8F8001006E02A
:102A1000D9F80000904202DC521CC9F8002001A83D
:102A200001F0DCFC20460EF0E5F80446002CD5D180
:102A3000BDE8FC872DE9FF4F83B00E460746DDF861
:102A4000409001F061FC0190C16D8D68FFF77AFF45
:102A5000044601A801F0C2FC2A68012138469047CB
:102A600083462A6803213846904782462A68002117
:102A7000384690470546B44207D105998B4504D1A5
:102A800006998A4501D14D4542D0A41B0026B04687
:102A900038460EF002F839E001F036FC0090806A0A
:102AA000010602D54FEA805002E0810528D50006D4
:102AB000002825DB24B12246114638460EF0CBFC17
:102AC000009890F8280000060AD50698A5EB0902A0
:102AD000A0EB0A0004FB1601761C38460EF06CFCD5
:102AE0000098008D80050BD50599A5EB0902ABEB8D
:102AF000010004FB080108F1010838460EF05CFCF7
:102B0000684601F06BFC38460EF074F80700C3D13C
:102B100007B0BDE8F08F70B586B0064601F0F4FB53
:102B20000590D0E91A4505A801F058FC54EA0500C3
:102B300026D069463046FFF79EFEACB1BDF90620AF
:102B4000BDF9041020460EF00AFCBDF90A00BDF9DB
:102B50000610421ABDF90800BDF90410521C411AB2
:102B6000491C20460EF00BFF002D09D0BDF90600D0
:102B7000BDF90210421ABDF9041028460EF0EFFB11
:102B800006B070BD2DE9F0430446406885B00646A6
:102B90000EF03DF8814601F0B7FB0090D0F8808040
:102BA000876C456E684601F019FC2068172859D0DB
:102BB00008DC0E2837D00F280BD0142852D0152847
:102BC0003AD14FE01E2818D01F2827D0222833D111
:102BD00046E06FF07040874204D0384606F0BCFAF9
:102BE00001F08CFD002D12D0D4E902122068CDE94D
:102BF0000106CDE9031201A822E0E068002806D012
:102C00005FEA080006D0B04504D00EF0DDFD05B047
:102C1000BDE8F08330460EF02BFE16E02146484614
:102C20000DF0CEF9F3E7E0684168002904DD0068A3
:102C30000928EFD00A2805D0A5B12046C4F8049091
:102C4000A847E4E730460EF022FE0446484601F06D
:102C50005BFB0090C0F88040684601F0BFFBD6E700
:102C6000E760D4E720460DF0A3FDD0E78000A0F197
:102C7000C040002904D0016841F0010101607047A3
:102C80000168024A1140016070470000FEFF0F001A
:102C900010B5D0E901121143D0E903231A431143BF
:102CA0004269114382691143C2691143026A1143A7
:102CB000426A1143826A1143C26A1143026B114393
:102CC00002689200A2F1C04211608168082907D110
:102CD00001688900A1F1C0410A6842F040020A601F
:102CE000416BD1E9002342EA03128B688C891B02F5
:102CF00043EA04431A430B8A42EA03520B7D896973
:102D000042EA03620A430168491C8900A1F1C041FB
:102D10000A60C16AB1F5804F08D000686FF0704159
:102D20008000A0F1C040C0F8041110BD816BD1E952
:102D3000002342EA03128B680C8A1B0243EA045305
:102D40001A430B7D896942EA036200680A438000E6
:102D5000A0F1C040C0F8042110BD00002DE9F04FE3
:102D60009DB07BA01BF078FB814D4FF0DC0885F80F
:102D70000080062068700F20A8700A21E970287171
:102D800000276F710126AE717A4C2770F1027A48E4
:102D90001CF0A3FB310379481CF09FFB677185F899
:102DA00000800CF097FE0A2001F090FE0CF060FE0F
:102DB0000DF04CF80DF04AFE03460097704A0A21C8
:102DC0007048019701F0E6FC1C900DF10C096E4D66
:102DD000B6E04FF4B97B4FF00708DFF8B0A191E0FF
:102DE0006079012802D0032877D082E0DFF8A08143
:102DF00088F8A471C8F8AC71C8F8A8714FF4887A43
:102E000051461C980DF038FEE17807F0FCF9514668
:102E10001C980DF031FE642303AAE17806F029FF27
:102E20004FF4B0711C980DF027FE03A90CF03FF889
:102E30000020E17808F5D87201EBC10303EB011122
:102E400002EB810203E009F80010401C80B2115C23
:102E50000029F8D109F800704EA103A81EF05DF911
:102E60004FF4805A514645481CF037FB002008EBD0
:102E70004001A1F8F07008EB000181F8687148F892
:102E80002070401C80B23C28F1D3012203A94248A3
:102E90001DF0BCF9DFF8048188F80000B8B93E489D
:102EA000C268524513D23E4B34491DF095FA88F85A
:102EB000000060B902A808F081F8304934481EF0DB
:102EC0006CF933481EF03CF902A808F097F8324834
:102ED0001CF0FBFF667019E0FFE7667159461C980D
:102EE0000DF0CAFD07232F4A0021CDF80080FEF720
:102EF00083F89AF8000010B11C980DF091FC0A209C
:102F000001F0E4FD287800287FF46AAF2878B8B192
:102F10000020E178244A01EBC10303EB011102EB2D
:102F2000810203E009F80010401C80B2115C002906
:102F3000F8D109F8007003A81C991EF0A7FE67706D
:102F4000287800287FF445AF1DB0BDE8F08F000061
:102F50003C3C2D4F532D494E464F2D3E3E204D7546
:102F6000736963617070206372656174650A0A0039
:102F7000B8000020CC000020347A0020B45E00208D
:102F800001E60108CC8C0208C000002029000020C6
:102F9000B47000206C726300B82700202B00002062
:102FA0002C000020C4570208647200202DE9F04F65
:102FB000ADF60C0D0124DFF85881002688F80A6070
:102FC000A8F11900867553A01BF046FA5A48F02163
:102FD0000170062141700F2181700A22C2700171B7
:102FE000467101218171A8F11D0006704170867043
:102FF0000221C1700CF06EFD4FF47A701CF080F964
:103000000CF036FD0CF022FF0DF020FD034600967B
:103010004A4A04214A48019601F0BCFB824649A075
:103020001CF048FAA8F11F054FF4B07BDFF820919F
:1030300066E0687801283FD10124464F3448224693
:1030400045A119381BF018FA3149012219394848AD
:103050001DF0DCF83870042806D045481CF035FF18
:10306000641CE4B2FF2CE9D3FF2C28D022463DA1FA
:1030700027481BF001FA88F80A602548514619389C
:103080001EF058FB3BA13F480CF02DFC03AA0DF2AB
:103090000C413DA0FDF724F9594650460DF0ECFCDB
:1030A0000DF20C410BF003FF40F2611150460DF0A0
:1030B000E3FC03A90BF0FBFE687810B117E06E701B
:1030C0001EE02878012812D1224626A110481BF0C4
:1030D000D3F988F80A60594650460DF0CDFC0C49EA
:1030E0000BF0E5FE0A48514619381EF057FA2948F8
:1030F000007810B150460DF093FB0A2001F0E6FC79
:1031000099F80000002894D10DF60C0DBDE8F08F61
:10311000F10000203C3C2D4F532D494E464F2D3E93
:103120003E205265636F72646572617070206372D5
:10313000656174650A0A0000B8000020A5EA01086C
:10314000E48D0208313A2F7265636F726465720014
:10315000C10000202B000020313A2F7265636F728E
:103160006465722F726563253033642E7761760053
:10317000B82700205265636F7264696E6720446FE0
:103180006E65000000380140255B5E0A5D0A255B24
:103190005E0A5D00290000202DE9FC470E46002450
:1031A000002700970197584D4FF0080AC5F800A076
:1031B000102068604FF04009C5F80890EF604FF4A8
:1031C0008068C5F8108028460AF034FA1020FEF70F
:1031D000EFF8002833D14D480089000428603720DB
:1031E0006860C5F80890EF60C5F8108028460AF0BE
:1031F00021FA3720FEF7DCF8002820D105F1140071
:103200004AF6FF710160C0F804A0302181600221FC
:10321000C1600761012141610AF07CF92F60332010
:103220006860C5F80890EF60C5F8108028460AF07D
:1032300001FA3320FEF7BCF80546280001D0BDE8AE
:10324000FC874FF4001A6F46DFF8C48040F22A6909
:1032500008E050460AF08CF920B10AF0E5F947F889
:103260002400641CD8F8340010EA090FF1D00820BB
:103270000AF07EF920B108200AF034F90420DEE7D4
:1032800002200AF075F920B102200AF02BF9022081
:10329000D5E720200AF06CF920B120200AF022F9AD
:1032A0000620CCE74FF4007420460AF061F920B103
:1032B00020460AF017F90720C1E740F2FF500AF054
:1032C00011F900980099000601F47F4140EA0120BD
:1032D000009901F47F0140EA1120009940EA116051
:1032E000706001980199000601F47F4140EA0120D5
:1032F000019901F47F0140EA1120019940EA11602F
:10330000306028469BE70000585E0020A0000020A7
:103310000080014010B504460A2812D00D2C14D0AC
:1033200002F05CFA09480068C069016820468847D5
:103330000748016809B120468847BDE8104003F0FE
:10334000E1BCBDE8104001F01FBC10BD1405002019
:103350003C0500202DE9F0430446C56887B090463F
:103360008946002003F00EF8064625B1287910B1F1
:1033700046F0020001E026F0020003F003F82069A5
:10338000012558B1D4E902128DE82600039563881F
:103390002288046841464846A0471EE0124F134B5E
:1033A000214638681B68427CE068984730B9E0885D
:1033B000012801D0002001E03868806BA288E388F2
:1033C000A1680095CDE90410CDE90232019563882A
:1033D00022884146484605F0BFFA07B03046BDE8AE
:1033E000F04302F0CFBF0000140500200C050020C0
:1033F0001CB50024019401AC009400F0E7F81CBD5A
:103400002DE9FF4F83B0814606988A46A0EB0A0853
:10341000109E00200090A2EB09043568934654EA00
:10342000080018D02046FDF775FA07464046FDF71C
:1034300071FA87420BDA2046444680464846D14618
:1034400082465846DDF818B0069001200090002C06
:1034500007DD204606E007B04846BDE8F04F00F023
:103460003BB96042A0420AD04846D9466442C8F1FE
:10347000000883464FF0FF37DDF818A000E0012771
:103480005148B8F1000F11D004EBD4714FEA610B31
:1034900001DACBF1000B4C480068807E88B3002F26
:1034A00002DA30682044306000257BE00099002972
:1034B000016821D0897E11B10027804615E007B050
:1034C0005A4649465046BDE8F04F05F0A9BB28468C
:1034D0006D1C19F0F7FC38B9D8F8000009EB0701AA
:1034E000C06E4268504690477F1CA742EFDD6D1EBC
:1034F000356007B0BDE8F08F8A7E1AB1002780469C
:1035000017E019E0C86E5A465146036807B04846AE
:10351000BDE8F04F184728466D1C19F0D3FC38B9A8
:10352000D8F8001009EB0700C96E4A685146904769
:103530007F1CA742EFDDDAE700250FE008FB05B0AE
:1035400090FBF4F101EB0A00009951B11E4A09EB1E
:1035500005011268D26E526890476D1CA542EDDDE0
:10356000C7E7194909EB05030968C96E4A680146AE
:103570001846F1E708FB05B090FBF4F101EB0A00F7
:10358000019030683844306019F09CFC48B90098CC
:1035900090B10D4809EB05010068C06E42680198C2
:1035A00090476D1CA542E5DD3068002F01DA20440C
:1035B0003060C01B30609CE7034909EB05000968D7
:1035C000C96E4A680199EBE7140500202DE9FF4711
:1035D0000F4640491646804609680C981D460A7EEB
:1035E000012A1CD0A8EB0600791B50EA01031CD06D
:1035F000A2F101091AF064FF00F58060824604F030
:103600009DFD00FB09F4504604F09CFD00FB09F110
:10361000002C0CDAC4F50070801240420AE00090E1
:10362000324639464046FFF7EBFEBDE8FF8704F51A
:103630000074A012002904DAC1F5007189124C420D
:1036400002E001F500718C12002804DD411C01EB41
:10365000D171491003E000EBD0714910401E00EB1E
:10366000D0704210002C04DD601C00EBD0704010C4
:1036700003E004EBD4704010641E04EBD47308EB39
:103680000104ADF800403C18ADF80240A8EB02047C
:103690005B10B21AADF80440ADF808203144FC1AB2
:1036A000EA1AADF80C102844ADF80A20ADF80E0067
:1036B0000023ADF806401A460421684600F07AF867
:1036C0003946404613F00EFA2946304613F00AFAFE
:1036D000ABE7000014050020064A13681A7E012A91
:1036E00005D0521E02EBD272521000F005B8DA6E0D
:1036F00052681047140500202DE9F05F0646884601
:1037000040F2C32050434FF47A7190FBF1F702FB73
:1037100002F002EBD27100EB610B254914467F1CCD
:1037200009683244301BC96E0B6841469847012531
:103730003AE000BF05FB05F004FB040159451CDD20
:10374000BC4219DD1A4B06EB050AA6EB05091B68FE
:10375000AAF1010208EB0401DB6E09F101001B680C
:103760009847134BAAF10102A8EB04011B6809F169
:103770000100DB6E1B689847641E0D4806EB040AC7
:10378000A6EB0409006808EB05015246C06E036809
:10379000484698470648A8EB050152460068C06EA7
:1037A0000368484698476D1CBD42C3DDBDE8F09FE5
:1037B000140500202DE9FF4F40F6FF740F466642C6
:1037C00083B09B46814600210BE000BF09EB8100DE
:1037D000B0F90200A04200DA0446B04200DD06461D
:1037E000491CB942F2DB68480068406900280DD0E6
:1037F000B0F906101A46A1EB0B01B14200DA0E46F1
:10380000B0F90200801AA04200DD0446B5E0DFF8FE
:103810007CA100200546CAF8000089E0781E854298
:1038200001DA6B1C00E0002309EB850C09EB830235
:10383000BCF90200B2F90210A04245D1A14215D153
:1038400039F92330059A39F9251003EB020C4E4A59
:1038500005981268084404EB0B01D26E60451368AA
:1038600001DA62462BE00246604628E02846A4467C
:103870004FF000087A1E0BE008B1401E00E0781EF1
:1038800009EB8003B3F90230634504D108F1010864
:103890009045F1DB2346A34249D0A3EB040239F95A
:1038A0002500A1EB040C059B92EA0C0209D4364AD0
:1038B000184404EB0B011268D26E13680246984755
:1038C00035E00EF0BBFF32E0A14230D001DBA04278
:1038D00003DDA0422BDBA14229DCE04688420ADC62
:1038E0000346A04223DC0846A14220DBB8F900C011
:1038F000B2F9001008E00B46A14218DCA04216DB2A
:10390000B2F900C0B8F90010E21AA1EB0C01514362
:103910000029A0EB030202DD01EB620102E0A1EB52
:103920006201491CC01A91FBF0F06044C9E76D1CAC
:10393000BD42FFF673AF0598009004EB0B000190B9
:1039400000208046054613E01149B8F1000F31F917
:1039500015A009D0009901EB0A0208440A49096838
:10396000C96E0B680199984788F0010850466D1C94
:10397000064909688D42E7DB641CB4427FF747AF14
:1039800007B0BDE8F08F000014050020500D0020A6
:1039900048EB002010B5002002F0CCFC6FF07F4017
:1039A00002F0DFFC012002F047FD002002F052FD92
:1039B000002002F05FFD002002F0E4FC04480068F3
:1039C00002F0ECFCBDE81040002002F007BD000052
:1039D000100500202DE9F0410022CC7804F00F03FF
:1039E000E40601D58C7823430C784FF00F0714F0D0
:1039F000FF0F4FF0010C1CD005680CFA02F40E8882
:103A00002640A64211D1960007FA06F825EA0805D5
:103A100003FA06F848EA0505CE78282E02D0482E8B
:103A200002D002E0446100E00461521C082AE4D3A1
:103A300005600A88FF2A1ED94568002202F108069F
:103A40000CFA06F40E882640A64210D1960007FA1A
:103A500006F825EA080503FA06F848EA0505CE78CF
:103A6000282E00D14461CE78482E00D10461521C2A
:103A7000082AE3D34560BDE8F08102460020926841
:103A80000A4200D0012070474161704701617047D0
:103A900070B50C46054600F0F1F8A8682168C162CF
:103AA00061680163A1684163490707D5D0E9002136
:103AB000C0E90012D0E90221C0E90212A189818483
:103AC0002169002903D001DC4FF00001016270BDC3
:103AD0002DE9F0411E4617468846054600F0CEF80F
:103AE000AC686822414604F58470FCF788FB2846E0
:103AF000B8472846B047286980688047A062BDE87B
:103B0000F081000010B5044600F0B8F8A0680E4936
:103B10004C30114AC1650D4981650D4901660D4959
:103B200081660021C166136843660C4BC0E91E31F3
:103B30005168416730F8261C21F0030120F8261C4B
:103B40000749416410BD0000C5CF0108FDD301083D
:103B50008DCF0108ADC70108C005002011C90108BB
:103B600095CE010810B5044600F088F8A4680C480A
:103B70009034102120650B4860650B48A0650B4808
:103B8000E0650B48E0600B482061206BA06654F8AC
:103B90009029204690471020A0630748606410BD1C
:103BA0005D59010821770108BD3B0008ED3C000884
:103BB00067C7010895DC0108ACE10208F8B5846824
:103BC00015460F4694F8260080074CD5D4F8FC30F3
:103BD000204698470646D4F800312A463946204602
:103BE0009847D4F8943005461BB1002201212046A5
:103BF00098472069B04201DD012000E00020A16962
:103C0000B14201DA012100E0002108436169A942C3
:103C100001DD012100E000210843E169A94201DA48
:103C2000012100E0002108430AD06068401E009096
:103C30002368D4F8A4705B1E002211462046B847C2
:103C4000D4F8A8302A46314620469847D4F89C102C
:103C500020468847D4F8943005466BB101220021F4
:103C60002046984708E0D4F8A83020469847D4F872
:103C70009C102046884705462846F8BD70B5044686
:103C80008068002812D14FF4B875284600F0B2FAC7
:103C90002A460021A06004F0D5F9A0680221C18461
:103CA0000121046401620249C0F8041170BD0000E2
:103CB000B53C000810B590B0044620220A49684679
:103CC000FCF79DFA08492022203108A8FCF797FA52
:103CD000606B5DF82010C4F8FC1008A951F82000B2
:103CE000C4F8000110B010BDEC9202082DE9F843B1
:103CF00084689846154694F826000F46800740D5FC
:103D0000D4F8FC30204698470646D4F800312A46BD
:103D100039462046984705462069B04201DD01201A
:103D200000E00020A169B14201DA012100E0002198
:103D300008436169A94201DD012100E00021084337
:103D4000E169A94201DA012100E0002108430AD01B
:103D50006068401E00902368D4F8A4705B1E0022A7
:103D600011462046B847D4F8A8302A4631462046A6
:103D70009847D4F8A02001B041462046BDE8F04362
:103D80001047D4F8A830F2E72DE9F04FDFF828B15A
:103D900091B04FF0FF35DBF80030B3F922100691F7
:103DA000DE69B3F924A0F469A189814206D8E289C9
:103DB000824203D3471AD4F8008012E0D4E901818B
:103DC000002970D00A8882426DD84D8885426AD316
:103DD000801A82B2486800EB8200B0F90070B0F936
:103DE0000250781C5FD0307EA27C014600FB02F9B5
:103DF000207CCDE90810B3F92A60304605F0F6F9C9
:103E0000C0B20E90DBF8001007FB0980A37C8A6B20
:103E10000127CDE90402CDE90273C869DDE9083262
:103E2000C17E807ECDE900015146069804F094FDE4
:103E3000681C18D046F0020005F0D8F9DBF8000045
:103E4000A37C05FB0981826BCDE90273CDE90412E5
:103E5000C069DDE90832C17E807ECDE900015146AE
:103E6000069804F079FDDBF800005D46C069417EEC
:103E7000007E814214D9022E12D086F0040005F093
:103E8000B5F92868C069027EC37E857E02FB03A166
:103E9000437E099A0698534402FB050204F0EAFEA9
:103EA0000E9805F0A3F9DBF80000627C418C114408
:103EB000418411B0BDE8F08F14050020044800686B
:103EC000C069C06909B1027C0A60407C704700008B
:103ED00014050020022008807047C06982898A4248
:103EE00002D8C2898A4210D2806880B102888A4290
:103EF0000DD843888B420AD3406800EB8100A0EBC9
:103F00008200B0F90000002801DB0120704700208A
:103F1000704700002DE9F0432F4C034687B020681E
:103F20001946B0F92A80C069C06900F082F80028FB
:103F30004ED041680088181A01EBC0054046AE78A3
:103F400005F054F9814620686A680123816BCDE948
:103F50000236CDE90421C169CB7E8A7ECDE90023FA
:103F60000B7EB0F924102A78B0F9220004F0F4FC9A
:103F70002068C069477E067EB7421DD9C07E474390
:103F80004643B8F1020F17D001F0F1FA804601F074
:103F9000B7FA02F0E6F921682A78CB69B1F9220074
:103FA000B1F92410DB7E02FB0302CB19314404F08B
:103FB00061FE404602F0D5F9484605F017F9206841
:103FC0006A78C369B0F922109B7E02FB0311418419
:103FD00007B0BDE8F08300001405002030B50E4C9A
:103FE00005460B4620682946C069C06900F021F8E3
:103FF000002810D04168008824682A1A0120E4694A
:1040000000EBC200085CA47E6043002B03D011F8D3
:1040100032106143196030BD140500200120088072
:10402000704700B5C06900F004F8002800D00120F6
:1040300000BD06E002888A4202D842888A4202D243
:1040400080680028F6D1704770B500240E4D16E048
:1040500028690E4900EBC410001D78220968FCF79E
:10406000CEF82869002100EBC410016000F10C01BA
:104070008161011D0A1DC0E90F12641C4164A8681A
:104080008442E5DB70BD0000FC0B0020140500201D
:1040900070B50D490B480860084603F059FF0A4CFB
:1040A000143CA068C501284600F0A4F82A46002167
:1040B000206103F0C7FF4FF0FF302060BDE8704083
:1040C00002F056BF91A10108100C0020F8B50C00B9
:1040D00005460FD001F082FB204600F017F80600DD
:1040E00010D000F011F9224600902DB12946FCF7BE
:1040F00086F804E00020F8BD002103F0A3FF684625
:1041000000F06CF902F0FEFD3046F8BD10B5040079
:1041100009D001F063FB20460EF01AFF044602F0BE
:10412000F1FD204610BD002010BD38B5054601F058
:1041300055FB2846FFF7EAFF040009D000F0E4F839
:104140002A460021009003F07DFF684600F046F902
:1041500002F0D8FD204638BD024A106021F003006D
:104160005060704770E9002010B5040016D001F0CF
:1041700035FB0B48006B10F8341059B1022909D2F5
:10418000042101EBC401415848680EF073FB20463E
:1041900018F0CCFABDE8104002F0B4BD10BD00002C
:1041A000B4E80020002805D0034A916B016001B1FA
:1041B0004860906370470000B4E8002010B50446E2
:1041C00001F00CFB2068FFF7CFFF00202060BDE866
:1041D000104002F097BD000070B50D460646002461
:1041E00005E000BF06EB8400FFF7E8FF641CAC426B
:1041F000F8DB70BD2DE9F041044615F007FA2648BA
:10420000E41C24F00305C16B2D1DA94200D90D4605
:10421000846B13E054F8042CAA420ED184B12168B7
:1042200009B162684A60616809B122680A60826BFC
:10423000A2422ED1216881632BE02468002CE9D1B1
:104240008046416B80680F1857F8040C3E1A30689E
:1042500038B1002018F0E2FB57F8040C3E1A306821
:10426000B8B97068A84214DB3044441B304618F0DB
:104270008DFBD8F80810491BC8F80810D8F81010A2
:104280002944C8F8101070683146401B0EF0F2FA4D
:1042900020C42046BDE8F081B4E8002010B5002419
:1042A00015F0B4F90C490F2001EBC002126C1AB1E1
:1042B00001EBC000006C08E0401EF5D508E0416845
:1042C000A14200D90C46806810B180680028F6D160
:1042D000A4F10C0010BD0000B4E80020002138B1AA
:1042E0000449042202EBC000096B085841680C39EC
:1042F00008467047B4E8002002484169491C416102
:1043000070470000B4E8002005498A69521C8A61A0
:10431000096B01EBC0010A78521C0A7000F076B8F4
:10432000B4E800207CB506460C460846FFF7EEFED2
:10433000050020D0FEB13046FFF7D0FFA04200DAE2
:10434000044601F04BFA2846FFF7DEFF00903046A6
:10435000FFF7DAFF0146019022460098FBF74FFF76
:10436000684600F03BF801A800F038F83046FFF747
:10437000FBFE02F0C7FC28467CBD000010B501F032
:104380002DFAFFF78BFF64220849B0F5800F04D99E
:1043900090FBF2F4C869444303E0C9694143B1FBAF
:1043A000F2F402F0AFFC204610BD0000B4E800209B
:1043B0000549102805D94A68B0EB520F02D35008BE
:1043C00000E010208860704770E9002002484169D1
:1043D000491E416170470000B4E800200A490268A4
:1043E0000B6B52F8082C03EBC2021378022B03D399
:1043F0008B690BB15B1E8B611178491E1170002116
:104400000160084670470000B4E80020002806D08C
:104410000349042202EBC000096B085808307047BA
:10442000B4E800202DE9FC414FF000060B465FEA9E
:10443000000834462BD032B111461846FFF746FE2D
:10444000060000D101244046FFF75EFF0090078878
:1044500045686846FFF7C2FFCCB9B900091D284678
:10446000FFF760FF050015D0FFF74EFF019040F801
:10447000276001A8FFF7B2FF4046FFF745FF009015
:1044800045600188491C01806846FFF7A7FF204668
:10449000BDE8FC813046FFF767FE0124F7E70820FE
:1044A000FFF743BE7CB5050023D0FFF72DFF00903A
:1044B0004068C0B1FFF728FF0024019005E0019893
:1044C00000EB8400FFF77AFE641C00980088A0428D
:1044D000F5DC01A8FFF782FF0098001DFFF76EFED4
:1044E0000099002008806846FFF778FF2846FFF70C
:1044F0003BFE7CBD38B5002430B1FFF705FF0090CE
:1045000004886846FFF76AFF204638BD38B50D4677
:10451000002448B1FFF7F8FE2946009000F05BF850
:1045200004466846FFF75AFF204638BD38B50D46A9
:10453000002448B1FFF7E8FE2946009000F05DF83E
:1045400004466846FFF74AFF204638BD2DE9FE4382
:10455000984691460D460024D0B3FFF7D5FE019052
:104560000788466801A8FFF739FFBD4230D27EB305
:104570003046FFF7C9FE009050F825406846FFF727
:104580002DFF24B12046FFF7A9FE404511D040463B
:10459000FFF7CBFD04000CD03046FFF7B5FE00EB73
:1045A000850500902846FFF709FE68462C60FFF756
:1045B00015FFB9F1000F0BD054B12046FFF7A4FE50
:1045C000424649460290FBF71AFE02A8FFF706FF93
:1045D0002046BDE8FE8338B50D4601880024A94277
:1045E00009D9406838B1FFF78FFE009050F8254098
:1045F0006846FFF7F3FE204638BD10B50024FFF7EC
:10460000EAFF10B1FFF780FE0446204610BD00000F
:1046100010B5136808290FD85C18146000222270A6
:10462000064A04E000F00F040009145D5C540C001D
:10463000A1F10101C9B2F5D110BD00007CF302085F
:1046400070B514460D46064601F0C8F8204600F045
:104650009BFF0300174804EB840109D050F82100A8
:1046600041688068711A2A1A184601F0A7FE1CE0FA
:1046700000EB8104A268B24201D0012200E00022D6
:10468000E368AB4201D0012300E000231A430CD0C1
:10469000236943B150F82100816840686A1A311AD1
:1046A000184601F0CBFDC4E90265BDE8704002F098
:1046B00029BB000020EB002010B5C2B2CBB2D21A49
:1046C00002D5C2F1000212B293B2C0F30722C1F3C5
:1046D000072403FB03F3121B01D5524212B2000C54
:1046E00092B2A0EB114002FB023200B2002801DAC4
:1046F000404200B280B200FB002010BD10B5002186
:10470000084600F0EFFF40F6FF725042BDE810404F
:1047100013460146AFF300802DE9FC411C461546C7
:104720000E46074601F05AF8042004F05FFD80466B
:104730001248C068C16C006D0F4406440D44044427
:10474000ADF80070ADF80450ADF80260ADF8064069
:1047500068460DF015FB07E023462A4631463846E9
:1047600004F088FA0DF0C0FA0028F5D1404604F0B4
:104770003DFD02F0C7FABDE8FC81000008050020FD
:10478000B0F90630B0F90420B0F90210B0F9000019
:10479000FFF7C2BF2DE9F8431C00DDE90898164673
:1047A0000F46054602D10CF051F9044600962E68DA
:1047B00043464A4621462846B047060039D00CF009
:1047C0003AF98146698A30460BF089FC30460DF093
:1047D00055F948460DF052F94FF000080CE000BFC3
:1047E000CDF8008055F81CCF00231A4649462846CC
:1047F000E04700B30DF042F97F1E002FF0DC1D21D1
:1048000048460CF0FCFE601C12D000F0E7FF0CF0F4
:1048100061F930B1FFF7FAFD8469B44201D020009C
:10482000F8D1B44202D030460DF022F802F06AFA14
:104830003046BDE8F88330460BF0F2FF0020F8E781
:104840002DE9F0411C4616460D460746022B02DBB9
:104850000020BDE8F0811C20FFF7CCFC0028F8D038
:104860000DB105610AE0094A52F8241009B905E0C2
:1048700011460A68002AFBD10969016184618682B8
:10488000002101604160C0E90217E2E72C05002029
:1048900070B51D46FFF7D4FF040001D000F00EF8FC
:1048A000E068006820B90348006800EB8500846573
:1048B000204670BD14050020FFF774BC70B590B39E
:1048C0008269022A30DA1C4C54F8221019B944F8D3
:1048D00022002FE019464B68002BFBD106E0CB6885
:1048E000C5681B682D68AB4203DD09680029F6D155
:1048F0001AE0C1B1CB68C6681B683668B3420CD1F8
:10490000838A012B05D008E01946DB681B68AB429F
:1049100003DB0B68002BF7D129B14B6833B118606A
:104920004A68426004E0FFE7012070BD44F82200BD
:1049300048600160002070BD2C05002010B503E028
:104940000468FFF7BBFF20460028F9D110BD19F01D
:1049500055B800002DE9F0410026DFF834800D4FF6
:10496000354600BF58F8254009E0E0680068385C2B
:1049700020B1204619F042F8266026462468002C13
:10498000F3D16D1C022DEDDB3046BDE8F081000057
:104990002C05002070920208022801DB00207047DD
:1049A000054A52F8200004E0C26812688A42F6D034
:1049B00000680028F8D170472C050020022801DB90
:1049C00000207047054951F8200004E0C1680968DB
:1049D0000029F6D000680028F8D170472C05002087
:1049E000F8B516460F4605004FF0000414D00C2011
:1049F000FFF79BFB04000FD000F0F0FE2046FFF70E
:104A000083FC06490090C0E900150781468168468D
:104A1000FFF7E4FC02F076F92046F8BD04E2020854
:104A2000F8B5074615460E460C20FFF77EFB04003E
:104A30000FD000F0D3FE2046FFF766FC0649009039
:104A4000C0E90017068145816846FFF7C7FC02F000
:104A500059F92046F8BD000024F302082DE9F84377
:104A60001D461646884604000CD0FFF74DFC00900A
:104A7000006807686846FFF7B1FC2B46324641469E
:104A80002046B847BDE8F88338B504004FF0000071
:104A90000AD02046FFF738FC009000684568684659
:104AA000FFF79CFC2046A84738BD38B504004FF0FE
:104AB00000000AD02046FFF727FC009000688568B8
:104AC0006846FFF78BFC2046A84738BD2DE9F0412A
:104AD000044602F039FA06191EE000BF00F046FC59
:104AE000052F00DD052700F079FE11480568FFF766
:104AF00003FC2C0017D000BF02F004F9641EFBD1A8
:104B0000384602F00FFA1DB100F068FE6D1EFBD1B1
:104B1000FFF75CFC02F0F6F802F016FA371A002FE5
:104B2000DCDCBDE8F081384602F0FCF9F0E700007B
:104B3000080C002010B5044600F050FE2046FCF79B
:104B4000ADFBBDE8104002F0DDB8000070B51446C2
:104B50000D46064600F042FE0548016830464D8489
:104B60008C84FCF79BFBBDE8704002F0CBB80000E2
:104B70001405002070B50C46054602E02846FFF7F4
:104B8000D9FF641EFAD570BD10B500F027FE00F005
:104B900013FD054909688A8C10448884088C488470
:104BA000BDE8104002F0AEB8140500202DE9FC4726
:104BB00006005FD000F012FE00F0FEFC3C4C814687
:104BC0002068B0F9228000F057FD216807468A8CE2
:104BD000D01B888441E000BF47F6FF71304603F0E8
:104BE00023F882460146304602F0F4FF216805466C
:104BF00091F82C0000F00300012841D002283BD09E
:104C000000204A8C101A4884ADF800006A1E104437
:104C1000ADF80400888CADF80200A9F10101084448
:104C2000ADF806006A465146304602F0D3FB2168D3
:104C3000BDF8020088845146304601F03FFF06442B
:104C400030780A281ED00D281CD0BDF8000021683D
:104C500028444884307818B1761C30780028BBD1BD
:104C60002068818C39448184818D21F00301818504
:104C700002F048F8BDE8FC8705EBD5704010C0E7AE
:104C80002846BEE7206890F82C1001F003010129A6
:104C90000BD0022909D0018C418431780A29D9D15D
:104CA000828C02EB09018184D4E7A0F82280F4E72A
:104CB0001405002070B514460D46064600F08EFD22
:104CC00005480068458484843046FFF76FFFBDE8DF
:104CD000704002F017B80000140500202DE9F041E3
:104CE00007460A4815460E460068B0F92C0040F009
:104CF000020001F0AFFB04462A4631463846FFF772
:104D0000D9FF2046BDE8F04101F0A4BB1405002006
:104D100047F6FF7300F042B82DE9FF471F460C9E8F
:104D200090460D46814686B300240094019400F01D
:104D300055FD9DB128680090174A6968019110607F
:104D4000516028460CF040FE040007D00246294678
:104D500002A802F0D6FF02A80CF036FE304618F08A
:104D6000B9FB05467168684688473B464246694636
:104D7000484602F087FB20460CF026FE284618F035
:104D8000A9FB01F0BFFFBDE8FF87FFE704B0BDE866
:104D9000F04700F003B80000B40B00202DE9FC41FF
:104DA0001F4690460D4606004FF000041AD000F052
:104DB00015FD65B128460CF007FE040007D0024639
:104DC0002946684602F09DFF68460CF0FDFD3B4613
:104DD00042462946304602F055FB20460CF0F4FDD1
:104DE00001F090FFBDE8FC812DE9FF4F85B09046B2
:104DF0008A4607007DD000F0F1FCDAF80040DAF8CE
:104E0000046021B230B2401A401C029000F0D4FB82
:104E1000054618F00C0F1ED03846089A029901F08A
:104E20007BFF08F00C01042904D0082902D00C29CA
:104E300011D104E0311400FB1510401C09E02114CD
:104E4000C1EB264200FB1520401C00EBD07001EBAB
:104E5000600060F31F44504601F077FAA5F1010BA2
:104E600004903846089A029903F0BAF803904FEA82
:104E7000244909EB0B0060F31F46CDE90046384694
:104E8000039902F0A7FE18F003010ED001292AD0E1
:104E900002290ED1BAF90420BAF90010521A101AD8
:104EA00000EBD07001EB600001E0BAF80000ADF853
:104EB00000006A463846039902F08CFA3846089A90
:104EC000029903F083F8074409EB050060F31F44DF
:104ED00038780028C5D1049801F037FA09B0BDE848
:104EE000F04F01F00FBFBAF80410081A401CDEE7BB
:104EF000FFE709B0BDE8F08F7CB514460D460646C5
:104F000000F06CFC11480068C16C006D0D44044455
:104F10003188681E0844ADF80400ADF8005071886F
:104F2000601E0844ADF80600ADF8024068460CF07B
:104F300027FF06E0224629463046FEF70BFA0CF022
:104F4000D3FE0028F6D101F0DDFE7CBD1405002063
:104F50001CB50A460146684602F0ECFF00F03EFC34
:104F60002548BDF80010006830F84C2F1144ADF80A
:104F70000010BDF8021082881144ADF80210BDF88F
:104F8000041002881144ADF80410BDF806108088A2
:104F90000844ADF8060068460CF0F2FE27E000BFBA
:104FA000BDF900400BE000BFBDF90210204603F040
:104FB00003FEBDF90610204603F0FEFDA41CBDF95A
:104FC0000400A042F0DABDF902400AE0BDF9000099
:104FD000214603F0F1FDBDF90400214603F0ECFD8C
:104FE000A41CBDF90600A042F0DA0CF07DFE0028FA
:104FF000D6D101F087FE1CBD140500202DE9F04F2D
:1050000087B09B46DDE9109892460C46054600F0B5
:10501000E5FB16480168C86C096D47190E1900EBCD
:105020000A0501EB0B04ADF81070ADF81450ADF8A3
:105030001260ADF8164004A80CF0A2FE88B1DFF8AB
:1050400030B04FF0000ACDE90098CDE902BA2B4606
:1050500022463946304611F0DCFB0CF045FE0028B4
:10506000F1D101F04FFE07B0BDE8F08F140500202C
:10507000218C00082DE9F04F87B09B46DDE91098A0
:1050800092460C46054600F0A9FB16480168C86C1C
:10509000096D47190E1900EB0A0501EB0B04ADF879
:1050A0001070ADF81450ADF81260ADF8164004A8B9
:1050B0000CF066FE88B1DFF830B04FF0010ACDE9A0
:1050C0000098CDE902BA23462A463146384611F007
:1050D000A0FB0CF009FE0028F1D101F013FE07B08F
:1050E000BDE8F08F14050020618B00082DE9FC411C
:1050F00014460D46064600F071FB114F3968C86C26
:10510000096D054404440E44ADF80050ADF8044068
:10511000ADF80260ADF8066068460CF031FE08E0BC
:10512000386822463146C06E0368284698470CF01E
:10513000DBFD0028F4D101F0E5FDBDE8FC810000B5
:10514000140500202DE9F0411C4615460E46074681
:1051500000F044FB0C480168C86C096D0744054425
:105160000E440C4400200CF00BFE07E023462A46B8
:1051700031463846FEF73CF90CF0B6FD0028F5D173
:10518000BDE8F04101F0BEBD140500207CB50C4621
:10519000064600F023FB0F4D2868C16C006D0E44DD
:1051A0000444ADF80460ADF80060ADF80640ADF819
:1051B000024068460CF0E4FD07E028682146C06E16
:1051C0004268304690470CF08FFD0028F5D101F081
:1051D00099FD7CBD140500202DE9FC411C461646B6
:1051E0000D46074600F0FAFA1A480168087ECA6CB4
:1051F000096D401E17440D440C44391A1644ADF88D
:1052000000103118ADF80410291A2044ADF806003A
:10521000ADF8021068460CF0B3FD15E032462946A1
:10522000384603F09DFC32462146384603F098FC90
:10523000621E691C384603F0F3FC621E691C30468E
:1052400003F0EEFC0CF050FD0028E7D101F05AFD10
:10525000BDE8FC811405002070B58EB015460E46E1
:10526000044600F0BBFA214606A802F040FEBDF855
:105270001A30642B0CD1002000900AAB01AA214601
:1052800006A802F089F82A46314601A8FFF734FE45
:1052900001F038FD0EB070BD7CB514460D460646D3
:1052A00000F09CFA0F480068C16C006D0E44054484
:1052B0000444ADF80060ADF80460ADF80250ADF8FC
:1052C000064068460CF05CFD06E022462946304662
:1052D00003F0A6FC0CF008FD0028F6D101F012FD49
:1052E0007CBD00001405002070B50C46054600F09A
:1052F00055F910B10121C0E9001400F06FFA2846F9
:105300000CF074FCBDE8704001F0FCBC10B5044624
:1053100001F00EFE04490968002903D02046BDE8CB
:105320001040084710BD0000BC0B002030B59DB0F8
:105330000D460446CDF870D06F220021684602F079
:1053400081FE6422214668460EF0B2F96846FAF7FB
:105350009AFF1C991CAA08441C900821284601F0B9
:1053600039FE6846FFF7D2FF1DB030BD10B50024EE
:1053700000E0012400F004F80028FAD1204610BD16
:10538000064810B50068002410B1804700B1012420
:105390000BF0C6FA00B10124204610BD34050020F0
:1053A00070B516460C46054600F018FA0B48006822
:1053B000C16C006D0D44044400200CF0E1FC06E0DB
:1053C000324621462846FEF797F90CF08DFC00285E
:1053D000F6D1BDE8704001F095BC00001405002036
:1053E0002DE9FC411C4615460E46074600F0F6F92D
:1053F00010480068C16C006D0F4406440D4404441D
:10540000ADF80070ADF80450ADF80260ADF806409C
:1054100068460CF0B5FC07E023462A46314638467C
:1054200003F028FC0CF060FC0028F5D101F06AFCC8
:10543000BDE8FC8114050020B0F90630B0F9042065
:10544000B0F90210B0F90000FFF7CABF08B50B466B
:10545000002805D0009281888268C08800F001F899
:1054600008BD10B50828029C30D008DC04FB01F40C
:1054700001280AD0022813D0042804D11CE01028E7
:1054800028D020282CD0002010BD04EBD30003F03E
:105490000701105CC1F10701C84000F0010010BD18
:1054A00004EB93000621105C01EA4301C1F10601FF
:1054B000C84000F0030010BD04EB5300D907105C96
:1054C00002D000F00F0010BD000910BD04FB013038
:1054D000105C10BD481004FB003032F8100010BD05
:1054E000881004FB003052F8200010BD034951F829
:1054F0002000C1688A6A0821104700002C0500209E
:1055000010B500F06BF903F0E5FB03F0BFFC0446B7
:1055100001F0F8FB204610BD10B5044600F05EF91E
:10552000054800210068C06942682046904704464B
:1055300001F0E8FB204610BD1405002070B50C46B4
:10554000054600F04BF9064821460068C0694268EC
:1055500028469047044601F0D5FB204670BD000068
:1055600014050020002801D00BF042BA704710B596
:1055700000F034F903F0B6FB03F088FC044601F0B8
:10558000C1FB204610BD00000021022802D20249C2
:1055900051F8201008467047D40B00201FB5002199
:1055A0000191029103912A21009169460CF018F8AB
:1055B000039804B010BD000010B500F00FF90448C6
:1055C0000068C069447E01F09DFB204610BD0000CC
:1055D0001405002070B50D46044600F0FFF814B91C
:1055E00009480068C46929460834207EA870A07E56
:1055F0002871607EE87054F8082920469047BDE87D
:10560000704001F07FBB00001405002010B500F0D1
:10561000E5F802F0D5FA044601F074FB204610BD0F
:1056200070B514460D46064600F0D8F822462946C5
:10563000304603F0C9FB10B1002028602060BDE8AF
:10564000704001F05FBB70B50C46054600F0C6F82F
:105650002146284602F012FBBDE8704001F052BB23
:1056600010B5044602F0FCFA01462046BDE81040A1
:1056700002F0B0BA01F068BC10B5002400F0AEF83A
:105680000B48006890F82C1001F00C01042904D09C
:10569000082906D00C2907D103E0C069047E641EE6
:1056A00002E0C069007E440801F02CFB204610BDDA
:1056B00014050020417EC07E48437047017EC07EB5
:1056C00048437047024951F820000069006870475C
:1056D0002C050020024951F82000006940687047FD
:1056E0002C05002070B50D46044600F077F82046E2
:1056F00013F01AFE0446284613F01EFE044301F080
:1057000001FB204670BD0000144810B5016821F06F
:1057100001010160124801218160124901600068A5
:105720001149884200D0FEE701F01CFE0F492E20EF
:10573000087001F00FFC0E4813F030FFFEF7A8FCD4
:105740001AF07EFB04460021084600F055FE0BF0DF
:10575000F5FCFEF779FC204610BD0000002000E0BB
:1057600000300240C2A507F4CDB5E8B50805002019
:105770007CE900202DE9FC411C4615460E460746F3
:1057800000F02CF8012000F0FDFD80461248006872
:10579000C16C006D0F4406440D440444ADF8007024
:1057A000ADF80450ADF80260ADF8064068460CF064
:1057B000E7FA07E023462A463146384603F05AFA0C
:1057C0000CF092FA0028F5D1404600F0DBFD01F024
:1057D00099FABDE8FC8100001405002070B51F4C4B
:1057E000E06820B101F0A8FB6168884204D001F0B4
:1057F000DBFB01F0A1FB6060E068401CE060012879
:1058000025D100250AE000BF01F096FB216901EBDC
:10581000C5110968814205D0D1B16D1CA0688542CF
:10582000F2DB00252068854211D000280EDBFFF74F
:1058300091F82268216901EBC212D067084A01EB96
:10584000C510011D1160C06FFFF778F8256070BDAD
:10585000216901EBC5110860E4E70000FC0B0020A2
:10586000140500201CB5040004D10E480068046E25
:10587000002C16D0FFF7B2FF2046FEF745FD009042
:1058800044696846FEF7AAFD4CB12046FEF73CFD90
:10589000019081688968884701A8FEF79FFD01F0A3
:1058A00031FA1CBD1405002001490A4600F002B877
:1058B00001F0FFFF2DE9F04387B015460C465FEA83
:1058C000000846D0FFF78AFF002000F05BFD81460C
:1058D00021480068066E4046FEF716FD00900068FD
:1058E000806900F0D3FC074640F6FF70001904D130
:1058F0000098B0F90440B0F906500098611E028982
:10590000ADF804401144ADF808104189681E084400
:10591000ADF80650ADF80A000AF0E4FD6846FEF75F
:105920005DFD01A80CF02CFA06E02A46214640460F
:1059300000F07CFB0CF0D8F90028F6D1384600F0D6
:10594000A5FC304600F0B8F9484600F01BFD01F018
:10595000D9F907B0BDE8F083140500202DE9FE4F0A
:10596000984691468A46834600270C9EFFF736FFED
:10597000174818490068407C51F82040E1680968E0
:10598000042903D02468002CF8D100E014B9FFF7F3
:1059900015F804460121E068C26A204690470500D8
:1059A00011D02469A0688047401C02D10A4C46F0FF
:1059B00001060096CDE9015443464A4651465846F1
:1059C00000F014FA074601F09DF93846BDE8FE8F55
:1059D000140500202C05002094D2020838B50400DC
:1059E0001CD0FFF7FBFE0E480068006EA04201D1FC
:1059F00000F03EFC2046FEF787FC0090406908B1AD
:105A000001F069F900980068FEF756FF6846FEF756
:105A1000E5FC2046FEF7A8FB01F074F938BD000054
:105A2000140500202DE9FF4F83B0454CDDF840B050
:105A300098468A4607002BD002A901A8FFF703FE6B
:105A4000B7F90060002E00DA0026B7F90250002DE9
:105A500000DA00252068A146407C03F0CEF90199C8
:105A60000144491EB7F9040014F003FA0446D9F8BA
:105A70000000407C03F0C7F902990144491EB7F9C0
:105A8000060014F0F6F9A71B7F1C441B641C0BE0F6
:105A9000206800263546407C03F0AFF907462068B1
:105AA000407C03F0B0F90446B8F1000F01D1C4F115
:105AB0000008002F01DD002C03DC002007B0BDE84A
:105AC000F08F43463A4629463046CDF800B0FFF7FE
:105AD00045FF5FEA000909D000F0AEF8804648466D
